:100000000C9457010C947F010C947F010C947F0198
:100010000C947F010C947F010C947F010C947F0160
:100020000C947F010C947F010C947F010C947F0150
:100030000C947F010C947F010C947F010C947F0140
:100040000C94800A0C947F010C944E0A0C94280A9C
:100050000C947F010C947F010C947F010C947F0120
:100060000C947F010C947F0100407A10F35A00A099
:10007000724E18090010A5D4E80000E87648170071
:1000800000E40B54020000CA9A3B000000E1F505B1
:10009000000080969800000040420F000000A086FB
:1000A00001000000102700000000E803000000002D
:1000B0006400000000000A000000000001000000D1
:1000C00000002C76D888DC674F0823DFC1DFAE59EB
:1000D000E1B1B796E5E3E453C63AE651997696E87E
:1000E000E6C28426EB898C9B62ED407C6FFCEFBC02
:1000F0009C9F40F2BAA56FA5F490055A2AF75C932D
:100100006B6CF9676DC11BFCE0E40D47FEF520E662
:10011000B500D0ED902E0300943577050080841E45
:10012000080000204E0A000000C80C333333330FA0
:10013000986E12831141EF8D2114893BE65516CF3D
:10014000FEE6DB18D1844B381BF77C1D901DA4BB49
:10015000E424203284725E228100C9F124ECA1E5FE
:100160003D27626C6E6B696E660076657200302E9C
:10017000362E3100682D6265617400313000627581
:1001800066662D696E003235360064657600417210
:100190006475696E6F20556E6F0063707500415411
:1001A0006D6567613332385000636F6E005374724F
:1001B00065616D006275696C64004E6F7620323146
:1001C00020323032302031393A32313A3236000082
:1001D0000000000000240027002A00000000002585
:1001E0000028002B00000000002300260029000446
:1001F00004040404040404020202020202030303CE
:1002000003030301020408102040800102040810C7
:100210002001020408102000000008000201000074
:100220000304070000000000000000820182018238
:1002300001820182018201820182018201820182A6
:100240000182018201820182018201820182018296
:100250000182018201820182018201820182018286
:1002600001820182018201820182018101AD03814B
:10027000018101810181018101810181018101816E
:10028000018101810181018101810181018101815E
:10029000018101810181018101810181018101814E
:1002A000018101810181018101810100CA0A1124BA
:1002B0001FBECFEFD8E0DEBFCDBF11E0A0E0B1E0C0
:1002C000E2EAF6E202C005900D92A83CB107D9F728
:1002D00022E0A8ECB1E001C01D92A839B207E1F715
:1002E00011E0C7E5D1E004C02197FE010E94281368
:1002F000C635D107C9F70E941A0B0C944F130C9402
:10030000000008950895AF92BF92CF92DF92EF92CE
:10031000FF920F931F93CF93DF936C017B018B01AF
:10032000040F151FEB015E01AE18BF08C017D107FF
:1003300059F06991D601ED91FC910190F081E02D89
:10034000C6010995892B79F7C501DF91CF911F91DE
:100350000F91FF90EF90DF90CF90BF90AF900895F6
:10036000FC01538D448D252F30E0842F90E0821BBB
:10037000930B541710F0CF96089501970895FC0140
:10038000918D828D981761F0A28DAE0FBF2FB11D98
:100390005D968C91928D9F5F9F73928F90E00895F0
:1003A0008FEF9FEF0895FC01918D828D981731F0AA
:1003B000828DE80FF11D858D90E008958FEF9FEFFE
:1003C0000895FC01918D228D892F90E0805C9F4FD4
:1003D000821B91098F73992708958BED91E00E94FC
:1003E000E10121E0892B09F420E0822F089580E0CB
:1003F00090E0892B29F00E94ED0181110C940000FE
:100400000895FC01A48DA80FB92FB11DA35ABF4FA9
:100410002C91848D90E001968F739927848FA68903
:10042000B7892C93A089B1898C91837080648C9357
:10043000938D848D981306C00288F389E02D808106
:100440008F7D80830895EF92FF920F931F93CF9338
:10045000DF93EC0181E0888F9B8D8C8D98131AC0FF
:10046000E889F989808185FF15C09FB7F894EE89E6
:10047000FF896083E889F989808183708064808343
:100480009FBF81E090E0DF91CF911F910F91FF908E
:10049000EF900895F62E0B8D10E00F5F1F4F0F7336
:1004A0001127E02E8C8D8E110CC00FB607FCFACFF1
:1004B000E889F989808185FFF5CFCE010E9401028C
:1004C000F1CFEB8DEC0FFD2FF11DE35AFF4FF082C2
:1004D0009FB7F8940B8FEA89FB8980818062CFCF28
:1004E000CF93DF93EC01888D8823B9F0AA89BB896B
:1004F000E889F9898C9185FD03C0808186FD0DC056
:100500000FB607FCF7CF8C9185FFF2CF808185FF76
:10051000EDCFCE010E940102E9CFDF91CF91089586
:10052000833081F028F4813099F08230A9F0089569
:100530008730A9F08830C9F08430B1F48091800010
:100540008F7D03C0809180008F7780938000089515
:1005500084B58F7784BD089584B58F7DFBCF80915E
:10056000B0008F778093B00008958091B0008F7DA8
:10057000F9CF1F93CF93DF93282F30E0F901E95E85
:10058000FD4F8491F901ED5FFD4FD491F901E151E7
:10059000FE4FC491CC23A9F0162F81110E94900226
:1005A000EC2FF0E0EE0FFF1FE552FE4FA591B49146
:1005B0008FB7F894EC91111108C0D095DE23DC932D
:1005C0008FBFDF91CF911F910895DE2BF8CFCF938E
:1005D000DF9390E0FC01ED5FFD4F249181519E4F30
:1005E000FC0184918823C9F090E0880F991FFC01D9
:1005F000EF52FE4FA591B491FC01E552FE4FC5911B
:10060000D49161110DC09FB7F8948C9120958223ED
:100610008C938881282328839FBFDF91CF910895F1
:10062000623051F49FB7F8943C91822F80958323D8
:100630008C93E8812E2BEFCF8FB7F894EC912E2B73
:100640002C938FBFEACF8E3008F08E508770806475
:1006500080937C0080917A00806480937A008091FE
:100660007A0086FDFCCF8091780090917900089502
:100670003FB7F8948091CD019091CE01A091CF0128
:10068000B091D00126B5A89B05C02F3F19F0019667
:10069000A11DB11D3FBFBA2FA92F982F8827BC01DC
:1006A000CD01620F711D811D911D42E0660F771F04
:1006B000881F991F4A95D1F708950C9438032FB7D6
:1006C000F8946091C9017091CA018091CB01909119
:1006D000CC012FBF08958F929F92AF92BF92CF927D
:1006E000DF92EF92FF920F931F93CF93DF936C01F2
:1006F0007B018B01040F151F0E945F034B015C01FE
:10070000E701C017D107C8F40E945F03681979098F
:100710008A099B09683B7B408105910570F4D601ED
:100720008D919C91DC01ED91FC910284F385E02D8B
:10073000099597FDE6CF8993E4CFCE018E199F09E5
:10074000DF91CF911F910F91FF90EF90DF90CF90AD
:10075000BF90AF909F908F90089544E050E069E380
:1007600071E08BED91E00E94830142E050E06EE386
:1007700071E08BED91E00C948301DC01ED91FC9133
:100780001197309761F012962D913C911397E217D3
:10079000F30728F401900020E9F7ED93FC93089506
:1007A000FC0180819181009739F022813381821789
:1007B000930710F40C944E0E90E080E008950F9390
:1007C0001F93CF93DF93EC01FB0101900020E9F729
:1007D0008F01061B170B8A819B81A801480F591FA7
:1007E0002C813D812417350768F028813981A801C3
:1007F000820F931F0E942E134A815B81400F511F6D
:100800005B834A83DF91CF911F910F9108950F93DE
:100810001F93CF93DF93CDB7DEB762970FB6F894EF
:10082000DEBF0FBECDBF8C01CB014AE0BE016F5FC2
:100830007F4F0E94750EBE016F5F7F4FC8010E94FF
:10084000DF0362960FB6F894DEBF0FBECDBFDF9117
:10085000CF911F910F9108953F924F925F926F92A7
:100860007F928F929F92AF92BF92CF92DF92EF9240
:10087000FF920F931F93CF93DF93CDB7DEB7A1976E
:100880000FB6F894DEBF0FBECDBF6C012DB73EB7DB
:1008900039A328A30E945D03D60157968D919C91A0
:1008A0005897B12C029709F460C356968C915697CD
:1008B0008F5F56968C93569754962D913C915597F1
:1008C000232B19F0BB24B39449C38330D8F7ED919F
:1008D000FC918281882309F426C3FE0131963F01F1
:1008E000D601ED91FC9180819181DC01ED91FC912B
:1008F0000084F185E02D0995181619060CF013C334
:1009000045E050E0BE01695E7F4FF6018081918134
:100910000E946B03009721F3059709F047C0888D6B
:10092000998D982789279827998F888FEA8CFB8C37
:10093000FE24EF24FE24FB8EEA8E892BB9F18F89E9
:1009400081113FC00E945F03D60116966D937D937F
:100950008D939C93199757962D913C9158974A8D5A
:100960005B8D232B49F5288D398D2130310521F5FB
:1009700049305105A9F0483C510519F04430510562
:10098000A9F4F60166877787808B918B21E030E0B0
:10099000308F278BC6010E9482090E945D03A0CF81
:1009A00083E090E058969C938E935797D601ED91F3
:1009B000FC911282B12CD2C24530510509F090CF82
:1009C000F5CFF60180819181F1E0EF16FF0640F04E
:1009D000D60158961C921E925797FC01128280CF26
:1009E000ADB6BEB697012F5F3F4F4DB75EB7421B06
:1009F000530B0FB6F8945EBF0FBE4DBF0DB71EB7B9
:100A00000F5F1F4FA701B8010E946B038E159F0552
:100A100009F065C0EA8DFB8DE00FF11F10820E9486
:100A20005F03D60116966D937D938D939C931997D2
:100A30008F89813109F467C210F5863099F08F30C3
:100A400009F47EC0823009F5F6018789908D892BE3
:100A500049F421E030E0308F278BC6010E948209E3
:100A60000E945D03488D598DF12CE12C08EC10E0BB
:100A700030E020E060E0C6010E94810813C08D31A3
:100A800019F360F4843109F45BC0D60158961C92C6
:100A90001E925797ED91FC91128204C0893241F069
:100AA000873399F70FB6F894BEBE0FBEADBE18CF10
:100AB00014968D919C91892B39F480E290E00E94EC
:100AC000290DF601958384838A8D9B8D800F911F5C
:100AD0001A8309839C838B830817190730F00FB69C
:100AE000F894BEBE0FBEADBE61CF40E250E0B8018B
:100AF000D60114968D919C910E944013C3010E94CF
:100B0000BD03D601ED91FC911197128258961C926B
:100B10001E9257970E945F03DC01CB0188589341D6
:100B2000A109B109F60182879387A487B5878683D7
:100B30009783A087B18786879787A08BB18BB2CF29
:100B4000888D998DD60155969C938E9354974A8C97
:100B50005B8C4801840C951C1D8F0C8F9F8E8E8E94
:100B60000815190508F05CC1F801E080F180CE019C
:100B70004C960E94BD03DC018D919C9188159905CE
:100B800008F04EC18C8D9D8DFC012081213459F4DB
:100B900001960E944E0E4EE0342E380E069744F019
:100BA00033243A9405C0CE014C960E94D003382ECF
:100BB000F6E7EF16F2E7FF0609F455C140F531E616
:100BC000E31632E7F30609F4EDC044E6E41642E723
:100BD000F40609F483C050E7E5165DE6F50609F072
:100BE00086C18C8D9D8D8815990508F019C1FC0171
:100BF0002081213409F03FC001960E944E0E3EE054
:100C0000F32EF80E0697E4F1FF24FA9439C084E637
:100C1000E81687E7F80609F4AAC096E7E91697E709
:100C2000F90609F437C1A1E6EA16A7E7FA0609F0C2
:100C30005EC1CE014C960E94BD03DC018D919C915A
:100C40008815990508F0ECC061E0832D0E94E70249
:100C5000CE014C960E94D0038C0161E0832D0E944E
:100C6000E7020115110509F498C00F3F110509F0BD
:100C7000B2C061E093C0CE014C960E94D003F82E22
:100C8000CE014C960E94BD030C8D1D8D65E771E071
:100C9000C8010E94371360E0892B79F061E471E0AC
:100CA000C8010E943713892B39F065E471E0C8014F
:100CB0000E943713892B49F461E08F2D0E94E702CF
:100CC000CE014C960E94BD038CCF69E471E0C8014F
:100CD0000E943713892BA1F762E0EFCF7A8A698AE5
:100CE0001C8A1B8A20E130E03E8B2D8B6CE471E086
:100CF000CE0141960E94DF03032D10E0B801CE0122
:100D000041960E940704F801E95EFD4F8491F801C5
:100D1000ED5FFD4FF49001511E4FF801049160E02A
:100D200070E0002389F081110E949002E02FF0E032
:100D3000EE0FFF1FEB51FE4FA591B491EC91FE22F7
:100D400061E070E009F460E0CE0141960E94070482
:100D50000B891C890150110929893A89F12CE12C50
:100D600050E040E064E1C6010E94810859C0CE0114
:100D70004C960E94BD03DC018D919C9188159905CC
:100D800008F04EC061E0832D0E94E702CE014C9630
:100D90000E94D00361E0892B09F460E0832D0E945A
:100DA000B9023EC07A8A698A1C8A1B8AE0E1F0E0B7
:100DB000FE8BED8B6FE471E0CE0141960E94DF0364
:100DC000632D70E0CE0141960E940704832D0E949E
:100DD0002303BC01B9CFE32DF0E0E95EFD4FE491C0
:100DE000E33039F148F4E130B9F0E230E9F00038AD
:100DF00011050CF03ECFD1CFE73029F1E83059F1A1
:100E0000E430A9F780918000806280938000109385
:100E10008B0000938A0004C084B5806884BD07BD40
:100E2000F601158A148A3ECE84B5806284BD08BD61
:100E3000F7CF8091800080688093800010938900B4
:100E400000938800EDCF8091B00080688093B0005F
:100E50000093B300E5CF8091B00080628093B00032
:100E60000093B400DDCF3982BFE1B315C8F2E32DA2
:100E7000F0E0EE0FFF1FE55DFD4F25913491211548
:100E8000310571F2E1E022383E0751F2C301F90168
:100E90000995C6CFCE014C960E94BD038C8D9D8DC9
:100EA0009C01201B310B421A530A9A8389835C826E
:100EB0004B825E824D82398AFFE1F31508F4B0CF90
:100EC000E32DF0E0EE0FFF1FE559FD4F2591349122
:100ED0002115310509F4A4CF41E02138340709F484
:100EE0009FCFB301CE014196F901099599CFD60163
:100EF00054964D915C91F12CE12C02E010E030E031
:100F000020E060E030CF8A8D9B8D800F911F1A8387
:100F100009839C838B830817190708F0C3CDC3018D
:100F20000E94BD03BFCD0E945F032B013C01F6016F
:100F300000811181D8011296BC9012978789908DFB
:100F40008130910509F088C0B1102FC046865786C0
:100F5000608A718A108E178A12961C92D601569654
:100F60008C915697815056968C938B2DE8A1F9A1C0
:100F70000FB6F894FEBF0FBEEDBFA1960FB6F89462
:100F8000DEBF0FBECDBFDF91CF911F910F91FF90BC
:100F9000EF90DF90CF90BF90AF909F908F907F9019
:100FA0006F905F904F903F90089586819781A085C4
:100FB000B185A3019201281B390B4A0B5B0BDA01A7
:100FC000C90189333AE49307A105B10530F0108EC9
:100FD000178AD80112961C92EDCC81319742A10557
:100FE000B10598F4F60182859385A485B585A301A2
:100FF0009201281B390B4A0B5B0BDA01C9018131C5
:101000009742A105B10508F45DCCF6018685978568
:10101000A089B189A3019201281B390B4A0B5B0BF4
:10102000DA01C901893B9B40A105B10508F44ACC0E
:10103000F12CE12C10E000E030E020E050E040E056
:1010400066E0C6010E948108D6011E964D925D920F
:101050006D927C92519782CF892B09F033CC868593
:101060009785A089B189481A590A6A0A7B0ABB2068
:1010700079F0F9EB4F16FBE05F066104710408F4A8
:1010800021CCD80112961C92F601108E178A92CCB0
:10109000F9E84F16F3E15F066104710408F412CC1D
:1010A000D8018D919C91DC01ED91FC910680F78136
:1010B000E02D099581E0F801828381E090E0D6017E
:1010C00053969C938E93529712962D913C91F901D1
:1010D00001900020E9F731978F01021B130BF12CCF
:1010E000E12C41E050E06DE1C6010E948108F6016B
:1010F00082859385A485B58586879787A08BB18BDC
:10110000E1CB2F923F924F925F927F928F929F926C
:10111000AF92BF92CF92DF92EF92FF920F931F9305
:10112000CF93DF9300D000D01F92CDB7DEB77C0104
:10113000762E6A015901DC01ED91FC9182818823B0
:1011400009F4A9C0862F8D7F09F4D7C0B6E06B17CC
:1011500009F4D3C0EDE16E1709F4CFC0D70157965B
:101160008D919C91019709F096C0452B81F4F70170
:10117000C488D588C114D10451F482899389019619
:1011800009F4A0C0938B828BF701C288D38884EFC7
:10119000870D8930B0F5D7011A964D915D916D910B
:1011A0007C911D9716968D919D910D90BC91A02DCF
:1011B00084179507A607B70710F4DB01CA011C01C5
:1011C0002D01E2E42E0E311C411C511C0E945F03D4
:1011D000A2019101261B370B480B590BDA01C901FB
:1011E000B7FD75C0C7010E942C040E945F03A201D5
:1011F0009101261B370B480B590BDA01C901B7FFC8
:10120000F1CF4801B5E08B0E911CA114B10419F483
:1012100085E0882E912C7982DC24CD24DC24DB82AD
:10122000CA82902F812F9D838C83D701ED91FC91F1
:1012300080819181DC01ED91FC910280F381E02DB0
:1012400045E050E0BE016F5F7F4F09950E945D034E
:10125000772009F445C00115110509F441C0D701F3
:10126000ED91FC9180819181DC01ED91FC910280F6
:10127000F381E02DA801B50109950B5F1F4F0E9476
:101280005D038016910679F1F701108E178A01909F
:10129000F081E02D12820F900F900F900F900F9021
:1012A000DF91CF911F910F91FF90EF90DF90CF9042
:1012B000BF90AF909F908F907F905F904F903F90A6
:1012C0002F90089581E090E0938B828B5DCFD701C2
:1012D00056968C91811195CFC7010E942C0491CF15
:1012E00005E010E0CECF0E945F03D7011A966D9300
:1012F0007D938D939C931D97CECFC114D10409F09B
:1013000080CF35CFCF92DF92EF92FF920F931F9352
:10131000CF93DF93CDB7DEB7C55AD1090FB6F89496
:10132000DEBF0FBECDBF6C0145E650E06AE671E05E
:10133000CE0101960E946C0ECE018A599F4F7C010E
:1013400005E610E09E012F5F3F4F50E040E061E175
:10135000C6010E948108CB55DF4F0FB6F894DEBF5F
:101360000FBECDBFDF91CF911F910F91FF90EF90F6
:10137000DF90CF900895CF92DF92EF92FF920F937C
:101380001F93CF93DF93CDB7DEB7C75AD1090FB6FE
:10139000F894DEBF0FBECDBF8C016A017B01CE0188
:1013A0000196CE55DF4F99838883C25AD040CC55E1
:1013B000DF4F19821882C45AD04080E890E0CA55A5
:1013C000DF4F99838883C65AD04062E571E0CE0131
:1013D0008E559F4F0E94DF03B801CE018E559F4F5F
:1013E0000E9407048E010F571F4F23E045E0C701FD
:1013F000B6010E940B0DB801CE018E559F4F0E9481
:10140000DF03CC55DF4F08811981C45AD040015009
:101410001109CE55DF4F28813981C25AD040F12CB5
:10142000E12C50E040E064E188E792E00E9481080E
:10143000C955DF4F0FB6F894DEBF0FBECDBFDF91A9
:10144000CF911F910F91FF90EF90DF90CF90089573
:101450001F920F920FB60F9211242F933F934F9329
:101460005F936F937F938F939F93AF93BF93EF930C
:10147000FF938BED91E00E940102FF91EF91BF91EC
:10148000AF919F918F917F916F915F914F913F911C
:101490002F910F900FBE0F901F9018951F920F92D3
:1014A0000FB60F9211242F938F939F93EF93FF9377
:1014B000E091EB01F091EC018081E091F101F0917C
:1014C000F20182FD1BC090818091F4018F5F8F73C8
:1014D0002091F501821741F0E091F401F0E0E5522E
:1014E000FE4F958F8093F401FF91EF919F918F9123
:1014F0002F910F900FBE0F901F9018958081F4CF01
:101500001F920F920FB60F9211242F933F938F9338
:101510009F93AF93BF938091C9019091CA01A0910D
:10152000CB01B091CC013091C80123E0230F2D37BE
:1015300058F50196A11DB11D2093C8018093C901E2
:101540009093CA01A093CB01B093CC018091CD01BF
:101550009091CE01A091CF01B091D0010196A11D33
:10156000B11D8093CD019093CE01A093CF01B09394
:10157000D001BF91AF919F918F913F912F910F908B
:101580000FBE0F901F90189526E8230F0296A11DFD
:10159000B11DD2CFEBEDF1E01382128288EE93E021
:1015A000A0E0B0E084839583A683B7838BE291E0CB
:1015B0009183808385EC90E09587848784EC90E02C
:1015C0009787868780EC90E0918B808B81EC90E010
:1015D000938B828B82EC90E0958B848B86EC90E0F1
:1015E000978B868B118E128E138E148EA1E9B2E02A
:1015F00011961C921E9212961C921297E8E7F2E046
:10160000B183A083138212821582148216821782FC
:1016100010861186128613861486158616861786FE
:10162000108A118A138A128A158A148A168A108ED1
:10163000178A0895CF93DF93CDB7DEB7C658D10987
:101640000FB6F894DEBF0FBECDBF789484B582602C
:1016500084BD84B5816084BD85B5826085BD85B556
:10166000816085BD80916E00816080936E001092D4
:10167000810080918100826080938100809181004F
:1016800081608093810080918000816080938000E0
:101690008091B10084608093B1008091B00081603E
:1016A0008093B00080917A00846080937A0080916A
:1016B0007A00826080937A0080917A0081608093C2
:1016C0007A0080917A00806880937A001092C1003D
:1016D000E091EB01F091EC0182E08083E091E70181
:1016E000F091E8011082E091E901F091EA018FECBC
:1016F00080831092F301E091EF01F091F00186E018
:101700008083E091ED01F091EE0180818061808322
:10171000E091ED01F091EE01808188608083E0919D
:10172000ED01F091EE01808180688083E091ED0110
:10173000F091EE0180818F7D808380E091E0909335
:101740007B0280937A020E945F03DC01CB01885800
:101750009341A109B1098093820290938302A093DF
:101760008402B093850280937E0290937F02A093BF
:101770008002B09381028093860290938702A093A7
:101780008802B0938902E0917802F09179028BEDA2
:1017900091E091838083E0917802F0917902128246
:1017A0001092900210928F020E945F034B015C0125
:1017B00080918F0290919002019781F00E945F03C7
:1017C000681979098A099B09683273428105910574
:1017D00028F488E792E00E942C04EACF80918F02DF
:1017E000909190020197B9F661E08AE00E94E702C9
:1017F00061E08DE00E94E702CE0101966C0180E875
:10180000A82EB12C90E0892E90E0992E6624639446
:10181000712C88E792E00E942C048EE00E94230342
:101820008C018FE00E942303BC01990F880B990B58
:101830000E94061220E030E040E054E40E942011B3
:1018400020E030E04CE452E40E9492111B012C0194
:101850002092D3013092D4014092D5015092D6010A
:10186000B801110F880B990B0E94061220E030E09E
:101870004AEF53E40E94BB1220E030E040E85AE314
:101880000E94BB126093D7017093D8018093D90155
:101890009093DA018091D1019091D201019709F4DE
:1018A0004CC020E030E040EA50ECC201B1010E949F
:1018B0008D1187FF42C0CF57DF4FD982C882C158F0
:1018C000D040CD57DF4F19821882C358D040CB5734
:1018D000DF4FB982A882C558D04065E571E0CE01DE
:1018E0008F579F4F0E94DF0368E771E0CE018F574B
:1018F0009F4F0E94DF0368E871E0CE018F579F4F32
:101900000E94DF03CD57DF4F08811981C358D040B3
:1019100001501109CF57DF4F28813981C158D0407C
:10192000F12CE12C50E040E06DE088E792E00E946D
:1019300081087092D2016092D10120E030E048EC41
:1019400052E46091D7017091D8018091D9019091B2
:10195000DA010E94B61218160CF058C061E08AE055
:101960000E94B902CF57DF4FD982C882C158D040F8
:10197000CD57DF4F19821882C358D040CB57DF4F65
:10198000B982A882C558D04062EA71E0CE018F5773
:101990009F4F0E94DF03CD57DF4F08811981C35845
:1019A000D04001501109CF57DF4F28813981C158EC
:1019B000D040F12CE12C50E040E06EE088E792E06E
:1019C0000E9481084091D7015091D8016091D901BE
:1019D0007091DA0185E090E00E94BB094091D3014B
:1019E0005091D4016091D5017091D60181E090E0D1
:1019F0000E94BB098114910409F40BCF0E94ED01F0
:101A0000882309F406CF0E94000003CF60E08AE03B
:101A10000E94B902D7CFEF920F931F93CF93DF931A
:101A2000E80134E047FD34E1042E000C550B57FF6C
:101A300003C0519541955109E32E022F242FAE0189
:101A40000E94A20ECE01DF91CF911F910F91EF90D6
:101A500008950F931F93CF93DF938230910510F475
:101A600082E090E0E0919602F091970230E020E071
:101A7000B0E0A0E0309799F42115310509F44AC08F
:101A8000281B390B24303105D8F58A819B816115DB
:101A9000710589F1FB0193838283FE0111C04081AE
:101AA00051810281138148175907E0F048175907FF
:101AB00099F4109761F012960C93129713961C9359
:101AC0003296CF01DF91CF911F910F91089500932E
:101AD000960210939702F4CF2115310551F0421769
:101AE000530738F0A901DB019A01BD01DF01F801BC
:101AF000C1CFEF01F9CF9093970280939602CDCF9B
:101B0000FE01E20FF31F8193919322503109398333
:101B10002883D7CF2091940230919502232B41F452
:101B20002091230130912401309395022093940257
:101B300020912101309122012115310541F42DB769
:101B40003EB74091250150912601241B350BE091B1
:101B50009402F0919502E217F307A0F42E1B3F0BBD
:101B60002817390778F0AC014E5F5F4F241735070F
:101B700048F04E0F5F1F509395024093940281935B
:101B800091939FCFF0E0E0E09CCFCF93DF9300975D
:101B9000E9F0FC01329713821282A0919602B09173
:101BA0009702ED0130E020E01097A1F4208131810F
:101BB000820F931F209194023091950228173907C4
:101BC00009F061C0F0939502E0939402DF91CF9108
:101BD0000895EA01CE17DF07E8F54A815B819E018F
:101BE00041155105B1F7E901FB83EA834991599108
:101BF000C40FD51FEC17FD0761F480819181029617
:101C0000840F951FE90199838883828193819B8347
:101C10008A83F0E0E0E012968D919C9113970097F3
:101C2000B9F52D913C911197CD010296820F931F2A
:101C300020919402309195022817390739F6309790
:101C400051F51092970210929602B0939502A093CC
:101C50009402BCCFD383C28340815181840F951FEE
:101C6000C817D90761F44E5F5F4F88819981480F8B
:101C7000591F518340838A819B81938382832115DD
:101C8000310509F0B0CFF0939702E09396029ECF12
:101C9000FD01DC01C0CF13821282D7CFFC0188275F
:101CA0009927E89421912032E9F3293010F02E3061
:101CB000C8F32B3241F02D3239F4689404C00E94ED
:101CC000800E820F911D219120532A30C0F31EF403
:101CD000909581959F4F0895FB01DC0102C005900E
:101CE0000D9241505040D8F70895BB274A3031F447
:101CF000992322F4BDE2909581959F4F0C94890E13
:101D00007AE0979F902D879F802D910D1124089543
:101D1000BB27FB015527AA27880F991FAA1FA417C5
:101D200010F0A41B83955051B9F7A05DAA3308F0B9
:101D3000A95DA193009779F7B111B1931192CB01ED
:101D40000C94D910A9E0B0E0E8EAFEE00C94EF10A2
:101D50006A01F22EB02E102FFBE3AF2EA01608F46E
:101D60001BE31F5F012F27E0AE014F5F5F4F0E9413
:101D70000110BC018981982F9970913009F43FC0FE
:101D80009BE2E1FC04C09E2D9170E0FC3AC05E2D08
:101D90005071E82FE87083FF46C084E0911101C0C4
:101DA00083E0EF2DE81B8F1508F0E0E0D6018E2FC1
:101DB00020E2552351F1992329F0D6019C93C601C5
:101DC00001966C0196012D5F3F4FE2FE24C08EE428
:101DD000D6018C9391E411969C93119712968C9353
:101DE000D9018E2F90E281111BC0E20FF32FF11D5C
:101DF00010828EEF9FEF2996ECE00C940B119DE280
:101E0000C6CF90E2C4CF2D9381508111FCCFCE0E6E
:101E1000D11CE0E0D0CF8EE6D6018C9391E6DBCFEB
:101E20009D938150E0CF482F447082FF3DC084E0F5
:101E3000911101C083E08F1510F4EF2DE81BD6013E
:101E40008E2F20E2552309F1992329F0D6019C9386
:101E5000C60101966C0196012D5F3F4FE2FE1BC04B
:101E600089E4D6018C938EE411968C93119786E4C5
:101E700012968C93D9018E2F90E2882309F4B5CF66
:101E80009D938150FACF2D9381508111FCCFCE0EBE
:101E9000D11CE0E0D9CF89E6D6018C938EE611966D
:101EA0008C93119786E6E4CF9B0177FF02C030E068
:101EB00020E0A1E0B0E0911102C0B0E0A0E0F901A3
:101EC0003196AE0FBF1F8B2C912CBB2009F461C043
:101ED0005401EFEFAE1ABE0AAA0DBB1DFA161B067F
:101EE00019F014F04F2D4A1B511188C0E3FC59C062
:101EF0007601A42FB0E2A1114FC0C40ED11C9923CA
:101F000009F45BC040E0D6011196F60190836D01A3
:101F1000552309F448C0012F060F9A81582F50719C
:101F200084FF03C0913309F4015010160CF047C030
:101F3000093008F008E0EEE2FE2E5B01A01AB108BD
:101F400085019194819491082F3F320729F4D6019D
:101F5000FC92F60131966F016217730794F1021734
:101F600013077CF5DB01A21BB30BAA24A394B12CAD
:101F7000AC0EBD1EAA0DBB1D11968C9121503109CE
:101F8000D601119628153905F4F0F60180836D010C
:101F9000DBCFB12CA12CA0CFF701B1937F01A150D1
:101FA000AACF9111B0CFD601942F50E302C05D9318
:101FB00091509111FCCFC40ED11C40E0ACCF01E098
:101FC000BACF80E3DBCF6217730731F4963388F41E
:101FD000953311F4552369F0F6018083FD01842FB8
:101FE00090E2811108C0A40FB11D1C9290E080E026
:101FF00002CF81E3F1CF91938150F3CF911183CF41
:102000008ACF283008F027E03327DA01990F311DF5
:1020100087FD916000966105710539F432602E5F8D
:102020003D9330E32A95E1F708959F3F30F08038E3
:102030007105610509F03C5F3C5F3D93913008F00C
:102040008068911DDF93CF931F930F93FF92EF92C0
:10205000192F987F9695E92F96959695E90FFF276A
:10206000EE53FF4F99273327EE24FF24A701E70102
:1020700005900894079428F4360FE71EF81E491FB0
:10208000511D660F771F881F991F0694A1F70590B1
:10209000079428F4E70EF81E491F561FC11D770F3D
:1020A000881F991F661F0694A1F70590079428F4CE
:1020B000F80E491F561FC71FD11D880F991F661F95
:1020C000771F0694A1F70590079420F4490F561F37
:1020D000C71FD81F990F661F771F881F0694A9F77F
:1020E00084911095177041F0D695C79557954795EF
:1020F000F794E7941A95C1F7E8E6F0E06894159034
:10210000159135916591959105907FE27395E11850
:10211000F10A430B560BC90BD009C0F7E10CF11EB5
:10212000431F561FC91FD01D7EF4703311F48A95CA
:10213000E6CFE894015030F0080F0AF400270217A8
:1021400008F4202F2395022F7A3328F079E37D932A
:102150002A95E9F710C07D932A9589F606949795FC
:102160006795379517951794E118F10A430B560BAD
:10217000C90BD00998F023957E9173957A3308F0B6
:1021800070E37C932013B8F77E9170617D9330F0FB
:10219000839571E37D9370E32A95E1F71124EF9025
:1021A000FF900F911F91CF91DF91992787FD909517
:1021B0000895DC01FC01672F71917723E1F73297D5
:1021C00004C07C916D9370836291AE17BF07C8F312
:1021D00008952F923F924F925F926F927F928F92CB
:1021E0009F92AF92BF92CF92DF92EF92FF920F93A6
:1021F0001F93CF93DF93CDB7DEB7CA1BDB0B0FB6B0
:10220000F894DEBF0FBECDBF09942A88398848886C
:102210005F846E847D848C849B84AA84B984C88402
:10222000DF80EE80FD800C811B81AA81B981CE0FF9
:10223000D11D0FB6F894DEBF0FBECDBFED010895DE
:102240005058BB27AA270E9438110C947C120E9478
:102250006E1238F00E94751220F039F49F3F19F485
:1022600026F40C946B120EF4E095E7FB0C946512C7
:10227000E92F0E948D1258F3BA176207730784077B
:10228000950720F079F4A6F50C94AF120EF4E095C2
:102290000B2EBA2FA02D0B01B90190010C01CA0120
:1022A000A0011124FF27591B99F0593F50F4503ECB
:1022B00068F11A16F040A22F232F342F4427585FBD
:1022C000F3CF469537952795A795F0405395C9F7D5
:1022D0007EF41F16BA0B620B730B840BBAF091508D
:1022E000A1F0FF0FBB1F661F771F881FC2F70EC02C
:1022F000BA0F621F731F841F48F4879577956795FF
:10230000B795F7959E3F08F0B0CF9395880F08F0EA
:102310009927EE0F9795879508950E94411208F42A
:1023200081E008950E94A6110C947C120E947512FF
:1023300058F00E946E1240F029F45F3F29F00C948F
:10234000651251110C94B0120C946B120E948D12F4
:1023500068F39923B1F3552391F3951B550BBB27D4
:10236000AA2762177307840738F09F5F5F4F220F19
:10237000331F441FAA1FA9F335D00E2E3AF0E0E810
:1023800032D091505040E695001CCAF72BD0FE2F5A
:1023900029D0660F771F881FBB1F261737074807EE
:1023A000AB07B0E809F0BB0B802DBF01FF279358A6
:1023B0005F4F3AF09E3F510578F00C9465120C94F3
:1023C000B0125F3FE4F3983ED4F386957795679516
:1023D000B795F7959F5FC9F7880F911D96958795DB
:1023E00097F90895E1E0660F771F881FBB1F6217FA
:1023F00073078407BA0720F0621B730B840BBA0BB8
:10240000EE1F88F7E0950895E89409C097FB3EF425
:1024100090958095709561957F4F8F4F9F4F992331
:10242000A9F0F92F96E9BB279395F69587957795AF
:102430006795B795F111F8CFFAF4BB0F11F460FF6F
:102440001BC06F5F7F4F8F4F9F4F16C0882311F0C7
:1024500096E911C0772321F09EE8872F762F05C0DB
:10246000662371F096E8862F70E060E02AF09A9576
:10247000660F771F881FDAF7880F9695879597F96B
:102480000895990F0008550FAA0BE0E8FEEF161605
:102490001706E807F907C0F012161306E407F50758
:1024A00098F0621B730B840B950B39F40A2661F0CC
:1024B000232B242B252B21F408950A2609F4A1406F
:1024C000A6958FEF811D811D089597F99F6780E87C
:1024D00070E060E008959FEF80EC089500240A9476
:1024E0001616170618060906089500240A941216EF
:1024F0001306140605060895092E0394000C11F422
:10250000882352F0BB0F40F4BF2B11F460FF04C0CE
:102510006F5F7F4F8F4F9F4F089557FD9058440F27
:10252000551F59F05F3F71F04795880F97FB991F32
:1025300061F09F3F79F087950895121613061406EF
:10254000551FF2CF4695F1DF08C01616170618067C
:10255000991FF1CF86957105610508940895E89457
:10256000BB2766277727CB0197F908950E94411270
:1025700008F48FEF08950E94CE120C947C120E94F2
:102580006E1238F00E94751220F0952311F00C9411
:1025900065120C946B1211240C94B0120E948D12CF
:1025A00070F3959FC1F3950F50E0551F629FF001A6
:1025B000729FBB27F00DB11D639FAA27F00DB11DBF
:1025C000AA1F649F6627B00DA11D661F829F222748
:1025D000B00DA11D621F739FB00DA11D621F839FCF
:1025E000A00D611D221F749F3327A00D611D231FA5
:1025F000849F600D211D822F762F6A2F11249F57F3
:1026000050409AF0F1F088234AF0EE0FFF1FBB1FF5
:10261000661F771F881F91505040A9F79E3F5105B4
:1026200080F00C9465120C94B0125F3FE4F3983E76
:10263000D4F3869577956795B795F795E7959F5F5E
:10264000C1F7FE2B880F911D9695879597F90895F0
:10265000EE0FFF1F0590F491E02D0994FB01DC01C2
:1026600002C001900D9241505040D8F70895FB01EF
:10267000DC018D91019080190110D9F3990B089517
:10268000FB01DC014150504048F001900D920020C8
:10269000C9F701C01D9241505040E0F70895F894E9
:0226A000FFCF6A
:1026A2005733317735626D386853354E64774F55FD
:1026B2006C5466615F496E304463486C57306A49B6
:1026C200000000980280000000000023028301B095
:1026D200017002E101BF01D30179656168000D0A51
:1026E200006F75740070776D00707500647700611B
:1026F20077007677006632303137303131384070CA
:10270200696C616E692E626974732D70696C616E99
:10271200692E61632E696E00436172204372617398
:102722006820416C65727400506C6561736520634A
:102732006F6E7461637420616D6275616C6E636546
:102742002E004865792C20436172206973206F76D0
:10275200657268656174696E67206D6164206D6180
:082762006E212121212121003B
:00000001FF
